:020000040800F2
:1000000038070020890100084F0F00081D0A00086A
:100010004D0F0008D9090008251100080000000054
:1000200000000000000000000000000009100008AF
:10003000DB09000800000000510F00080B10000849
:10004000A3010008A3010008A3010008A301000800
:10005000A3010008A3010008A3010008A3010008F0
:10006000A3010008A3010008A3010008A3010008E0
:10007000A3010008A3010008A3010008A3010008D0
:10008000A3010008A3010008A3010008A3010008C0
:10009000A3010008A3010008A3010008A3010008B0
:1000A000A3010008AB100008A3010008A301000889
:1000B000A3010008A301000800000000A30100083C
:1000C000A30100080000000000000000A3010008D8
:1000D00000000000AD100008A301000800000000AF
:1000E000A3010008A3010008A301000800F002F822
:1000F00000F03AF80AA090E8000C82448344AAF188
:100100000107DA4501D100F02FF8AFF2090EBAE885
:100110000F0013F0010F18BFFB1A43F0010318473B
:100120000811000028110000103A24BF78C878C1D7
:10013000FAD8520724BF30C830C144BF04680C60ED
:10014000704700000023002400250026103A28BF35
:1001500078C1FBD8520728BF30C148BF0B60704739
:100160001FB51FBD10B510BD00F058F81146FFF7C0
:10017000F7FF00F0D9FF00F076F803B4FFF7F2FFC5
:1001800003BC00F07DF8000009488047094800479B
:10019000FEE7FEE7FEE7FEE7FEE7FEE7FEE7FEE737
:1001A000FEE7FEE704480549054A064B7047000094
:1001B000A9100008ED0000083801002038070020D1
:1001C00038030020380300204FF0000200B513462A
:1001D00094469646203922BFA0E80C50A0E80C5067
:1001E000B1F12001BFF4F7AF090728BFA0E80C5018
:1001F00048BF0CC05DF804EB890028BF40F8042B11
:1002000008BF704748BF20F8022B11F0804F18BF7D
:1002100000F8012B7047704770477047754600F033
:100220002BF8AE4605006946534620F00700854688
:1002300018B020B5FFF7B6FFBDE820404FF000062C
:100240004FF000074FF000084FF0000B21F00701BE
:10025000AC46ACE8C009ACE8C009ACE8C009ACE801
:10026000C0098D46704710B50446AFF300802046A4
:10027000BDE81040FFF781BF00487047D80000205C
:1002800001491820ABBEFEE726000200704710B5FA
:1002900004460078072832D2DFE800F031040A1261
:1002A0001A21280021896068BDE8104000F06CBA6E
:1002B00000F0B8F8D4E90101BDE8104000F08EB9B3
:1002C00000F088F82189A088BDE8104000F040B90E
:1002D00000F0D0F82079BDE8104000F0BDB900F082
:1002E00037F8A088BDE8104000F014B900F0EAF833
:1002F000241D94E80F00BDE8104000F0E3B910BDE4
:1003000070B5114C0125C4F8BC511048C0F880519B
:100310000026C4F8B061C4F8AC51C4F8AC613146F1
:100320001D2004F5D67400F037FB4C211E2000F090
:1003300033FB00211F2000F02FFB6021202000F064
:100340002BFB6560666070BD000021420080214289
:100350002DE9F0471C4C042501274EF66026C4F811
:10036000BC711A48C0F880714FF00008C4F8B08121
:10037000C4F8AC71C4F8AC8141461D2000F00CFB00
:100380004C211E2000F008FB00211F2000F004FB80
:100390006021202000F000FB304600F01FFBDFF85A
:1003A00030900626761EF6B228466D1C19F8061007
:1003B000EDB200F0F1FA002EF4D1C4F8B071C4F837
:1003C000B081BDE8F087000000002142008021429A
:1003D0000300002070B5114C0125C4F8BC51104831
:1003E000C0F880510026C4F8B061C4F8AC51C4F81C
:1003F000AC6131461D2004F5D67400F0CDFA4C21D5
:100400001E2000F0C9FA08211F2000F0C5FA602163
:10041000202000F0C1FA6560666070BD00002142D6
:100420000080214270B5114C0125C4F8BC51104820
:10043000C0F880510026C4F8B061C4F8AC51C4F8CB
:10044000AC6131461D2004F5D67400F0A5FA4C21AC
:100450001E2000F0A1FA02211F2000F09DFA602169
:10046000202000F099FA6560666070BD00002142AE
:100470000080214270B5114C0125C4F8BC511048D0
:10048000C0F880510026C4F8B061C4F8AC51C4F87B
:10049000AC6131461D2004F5D67400F07DFA4C2184
:1004A0001E2000F079FA00211F2000F075FA70215B
:1004B000202000F071FA6560666070BD0000214286
:1004C0000080214270B5114C0125C4F8BC51104880
:1004D000C0F880510026C4F8B061C4F8AC51C4F82B
:1004E000AC6131461D2004F5D67400F055FA4C215C
:1004F0001E2000F051FA24211F2000F04DFA602147
:10050000202000F049FA6560666070BD000021425D
:100510000080214270B5C0F3072104460D4621201A
:1005200000F03AFAE1B2222000F036FA2946232000
:1005300000F032FAE1B2242000F02EFA0348012143
:10054000C0F8B0110021C0F8B01170BD0000214208
:100550002DE9F0410C460646C0F307214EF6602710
:100560000425002000F018FAF1B2012000F014FA7E
:10057000C4F30721022000F00FFAE1B2032000F0DB
:100580000BFA384600F02AFA124E0624641EE4B232
:1005900028466A1C315DD5B200F0FEF9002CF5D179
:1005A0000F21212000F0F8F9A021222000F0F4F919
:1005B0000F21232000F0F0F9A021242000F0ECF915
:1005C00005480121C0F8B0110021C0F8B011BDE804
:1005D000F081000003000020000021422DE9F041DD
:1005E0008846062604250A2400F0F8F9184F761EDE
:1005F000F6B228466D1CB95DEDB200F0CDF9002EC3
:10060000F5D1404600F0EAF906256D1EEDB2204610
:10061000641C795DE4B200F0BFF9002DF5D10F2123
:10062000212000F0B9F9A021222000F0B5F90F2116
:10063000232000F0B1F9A021242000F0ADF90548F5
:100640000121C0F8B0110021C0F8B011BDE8F0815F
:1006500003000020000021422DE9F04106464EF63D
:100660006020042700F0BAF9144D0624641EE4B299
:1006700038467A1C295DD7B200F08EF9002CF5D1EE
:100680000F21212000F088F9A021222000F084F918
:100690000F21232000F080F9A021242000F07CF914
:1006A0003146252000F078F905480121C0F8B01145
:1006B0000021C0F8B011BDE8F08100000300002067
:1006C000000021422DE9F05F994693468A460626AE
:1006D00004270A25102400F081F9DFF8A480761E93
:1006E000F6B238467A1C18F80610D7B200F054F962
:1006F000002EF4D1504600F071F906264746761ECA
:10070000F6B228466D1CB95DEDB200F045F9002E39
:10071000F5D1584600F062F906256D1EEDB220466F
:10072000641C795DE4B200F037F9002DF5D1C9F30E
:1007300003411A2000F030F9C9F307211B2000F013
:100740002BF909F0FF011C2000F026F90F212120D0
:1007500000F022F9A021222000F01EF90F21232011
:1007600000F01AF9A021242000F016F90548012113
:10077000C0F8B0110021C0F8B011BDE8F09F000032
:1007800003000020000021422DE9F0410D4604271E
:1007900000F024F9134E0624641EE4B238467A1C95
:1007A000315DD7B200F0F8F8002CF5D1C5F3072180
:1007B0000C46212000F0F0F8E9B2222000F0ECF81D
:1007C0002146232000F0E8F8E9B2242000F0E4F804
:1007D00005480121C0F8B0110021C0F8B011BDE8F2
:1007E000F0810000030000200000214270B50546A2
:1007F00000241421FFF7E8FC6648017800297AD02C
:10080000552901D0012070BD427802212A70072AA3
:1008100071D2DFE802F0BC04264462718000425CC1
:10082000C4F10303DB009A406B68491C1A43641C43
:10083000E4B2C9B26A60042CF1D30022435CC2F175
:100840000104E400A3402C89491C2343521CD2B26A
:100850002B81C9B2022AF1D3405CCC284BD00220B4
:1008600070BD425CC4F10303DB009A406B68491C15
:100870001A43641CE4B2C9B26A60042CF1D30022AA
:10088000435CC2F10304E400A340AC68491C234369
:10089000521CD2B2C9B2AB60042AF1D3DCE7425C8D
:1008A000C4F10103DB009A40AB88491C1A43641C65
:1008B000E4B2AA80C9B2022CF1D30022435CC2F197
:1008C0000104E400A3402C89491C2343521CD2B2EA
:1008D0002B81C9B2022AF1D3BEE7425C6342DB003E
:1008E0009A402B79491C1A43641C2A71C9B214F02E
:1008F000FF04F2D0B0E74AE0425CC4F10103DB0040
:100900009A40AB88491C1A43641CE4B2AA80C9B25D
:10091000022CF1D3A0E7425CC4F10303DB009A4050
:100920006B68491C1A43641CE4B2C9B26A60042CA7
:10093000F1D30022435CC2F10304E400A340AC689D
:10094000491C2343521CD2B2C9B2AB60042AF1D372
:100950000022435CC2F10304E400A340EC68491C9C
:100960002343521CD2B2C9B2EB60042AF1D3002255
:10097000435CC2F10204E400A3402C69491C2343F8
:10098000521CD2B2C9B22B61032AF1D364E7002012
:1009900070BD0000100000200C4A136843F47F0370
:1009A000136013680B43136009490A6842F0FC7234
:1009B0000A600A6842EAC000086006480021C0F8E0
:1009C000BC110121C0F8BC117047000010080140A3
:1009D000100C014000002142FEE7704730B5C1B263
:1009E000C0F30725C0F30744030E0A4A0A485143DF
:1009F0000170090A02FB05114170090A02FB04118A
:100A00008170090A02FB0311C170090A0171090A08
:100A1000417130BD4CE5110003000020FEE70000ED
:100A20000449C8684A14824300F4005042EA004076
:100A30000861704700100140044908B58A69024303
:100A40008A6189690140009108BD000000100240E0
:100A5000044908B58A6902438A61896901400091A5
:100A600008BD000000100240F0B50A68C2F30F256F
:100A700095FAA5F2B2FA82F369E001229A402A427D
:100A800064D0082B03D240F201129A4006E0A3F191
:100A900008024FF00114944044F080624C68082C26
:100AA0000BD10C69C668170A97FAA7F7B7FA87F748
:100AB00026EA1226BC402643C66092FAA2F700EB53
:100AC0001264B7FA87F74FEA870C0F27266807FAF0
:100AD0000CF7BE4392FAA2F7D1F804E0B7FA87F711
:100AE000BF000EFA07FE46EA0E0626604F68012F89
:100AF00001D0092F2AD192FAA2F7B7FA87F74FEA65
:100B0000870C032707FA0CF7BE4392FAA2F7B7FA4D
:100B100087F7D1F808E0BF000EFA07FE92FAA2FCB0
:100B200046EA0E06BCFA8CFC4FEA8C0E4FF0040C21
:100B300026600CFA0EFC92FAA2F2B2FA82F2CF68A8
:100B4000920026EA0C0697403E4326605B1C35FA6D
:100B500003F292D10020F0BD4FF47A71B0FBF1F1B5
:100B60004FF0E020491E41610021816105210161B2
:100B7000704700B5034600F017FA186000F0EAF974
:100B8000586000F0F5F99860586800F0FFF9D860F7
:100B900000BD000001490860704700000C00002003
:100BA00070B50268134B144C4FF08045984203D047
:100BB000A84201D0A04203D14E6822F07002324315
:100BC000984203D0A84201D0A04203D1CC6822F4BD
:100BD0004072224302608A68C2620A888262984236
:100BE00001D109690163416941F0010141610020BE
:100BF00070BD0000002C0140000400402DE9FF41C1
:100C00000446C0680D460126C0F34030E8BBE968E1
:100C10006868E2680843296941F20C639A4311430A
:100C20000843E060A868216921F440510143216133
:100C30006869616921F44071014361616846FFF7A9
:100C400098FF2248844201D1039803E0204884425F
:100C500038D10298C8B12968B9B100EBC00202EBE3
:100C600000128900B2FBF1F36420B3FBF0F3B2FB96
:100C7000F1F56FF018077B43002605EB830532235F
:100C800003EB0515B5FBF0F500E01BE0B2FBF1F757
:100C9000B7FBF0F705F0F00505EB0715B2FBF1F730
:100CA000B2FBF1F1B1FBF0F16FF01802514307EB29
:100CB000810103EB0111B1FBF0F000F00F002844BB
:100CC00080B2A06004B03046BDE8F0810038014039
:100CD0000044004008B54FF0E0210A690092421C30
:100CE00000D0401C0A69D20300D5401E0028F9D16B
:100CF00008BD00002DE9F04786B014216846FFF7D3
:100D000063FA1020FFF798FE2020FFF795FE0420DD
:100D1000FFF792FE0820FFF78FFE1948174A4FF49D
:100D200000514161184FDFF85C9049F6FF0179618D
:100D3000DFF85C80DFF854A040F6FB13C8F81430ED
:100D40000124022500268DE874006946FFF78CFE19
:100D500001AACDF8009082E8700069463846FFF796
:100D600083FE01AACDF800A082E8700069464046E3
:100D7000FFF77AFE06B0BDE8F087000020002004EF
:100D800000100140FFFF980400080140FBFB09042C
:100D9000000C014010B586B014216846FFF714FA24
:100DA0002748816941F400618161806900F4006035
:100DB000059024480068C0F30220C0F10702042A0D
:100DC00000D90422011D072901D2002000E0C01E25
:100DD000012101FA02F35B1E03F00202824081400E
:100DE000491E01F0020018490243100181F8000475
:100DF0004FF0E0224FF000710020C2F80011ADF872
:100E000000004FF6FF71CDE90101104C03900490F2
:100E100069462046FFF7C4FE206820F0800020606D
:100E2000A06844F207018843A060606820F0700069
:100E30006060A06820F08000A06006B010BD0000D7
:100E4000001002400CED00E019E000E0002C014031
:100E500030B58DB01C216846FFF7B6F9142107A8FC
:100E6000FFF7B2F94FF48040FFF7F2FD0420FFF7DF
:100E7000EFFD304807900920089003200024CDE9B9
:100E800009042D4D07A92846FFF7EEFD2B480790D2
:100E90000420089007A92846FFF7E6FD28480068C7
:100EA000C0F30220C0F10701042900D90421021D6A
:100EB000072A01D2002000E0C01E012202FA01F13F
:100EC000491E01F0030181408240521E02F00300DE
:100ED000014308011B4981F800041A4920202139E7
:100EE000C1F800014FF4E130CDE900040C20029478
:100EF000CDE9034005940694134C69462046FFF75C
:100F00007DFE54F8100F20F4904001C4206820F0BA
:100F10002A0044F80809206840F40050C4F8000092
:100F200054E8000F40F0200044E800010029F7D108
:100F30000DB030BD020002040008014004000404AA
:100F40000CED00E025E000E000380140FEE7FEE7A0
:100F50007047000004494968044A01F0F00109099A
:100F6000515CC84070470000001002401012000899
:100F700004494968044A01F4E06102EB112109784F
:100F8000C840704700100240201200080449496818
:100F9000044A01F4605102EBD1210978C84070473E
:100FA00000100240201200080648406810F00C01B2
:100FB000054805D0042903D0082901D100F006B85E
:100FC000704700000010024000127A000B48416890
:100FD00011F480320A4909D0B2F5803F06D1416848
:100FE000084AC1F34041491CB2FBF1F140680222BA
:100FF00000F4701002EB904048437047001002402C
:1010000000093D0000127A0070477047234810B570
:10101000016821F0070141F002010160016801F05F
:1010200007010229FAD11E48016841F480310160AC
:101030000168C1F340410029FAD0416821F47C11D4
:1010400041F4E8114160016841F08071016001687C
:10105000C1F340610029FAD0416821F0F0014160FC
:10106000416821F4E06141F480614160416821F40C
:1010700060514160416821F0030141F0020141608B
:10108000416801F00C010829FAD1064C2046FFF70F
:1010900063FD2046BDE81040FFF77CBD0020024004
:1010A0000010024000A24A04704770470748426897
:1010B0000849074B088864281A54074A01D30123BA
:1010C00000E000231370401C088070470038014086
:1010D00010000020000000200200002010B50021B8
:1010E000064A06E01468C4F38014002CFAD053605A
:1010F000491C435C002BF5D110BD000000380140B5
:1011000010B5064B002001461A88054C01E0215419
:10111000401C9042FBDB198010BD00000000002045
:1011200010000020FEE70000314886B0816941F0E0
:1011300001018161816901F001010591C16941F0FD
:101140008051C161C0692B4900F08050059008684A
:101150004FF6FF021040284A40F4A0601043086098
:101160000868C0F30220C0F10702042A00D9042253
:10117000011D072901D2002000E0C01E012101FA53
:1011800002F2521E02F0010282408140491E01F02B
:1011900001001A490243100181F8140D18484168F2
:1011A00021F0E06141F000714160FFF72FFFFFF790
:1011B000A1FDFFF7EFFDFFF74BFEFFF7A1F840F6AB
:1011C000FF711048FFF7E0FA4FF47A746846FFF7B2
:1011D0000DFB10B10CA0FFF781FFFFF791FF6846F0
:1011E000FFF755F8FFF71CFC2046FFF773FDEDE70E
:1011F000001002400CED00E00000FA050FE000E0F6
:101200000000014040420F004572726F720D0A00EB
:1012100000000000000000000102030406070809A6
:101220000000000001020304481200080000002032
:1012300010000000280100085812000810000020CB
:101240002807000044010008000000000000000022
:08125000000000000024F4007E
:04000005080000ED02
:00000001FF
